:020000040800F2
:1000000000C00020318D0008838D00088F8D00080E
:10001000958D00089B8D0008A18D00080000000050
:10002000000000000000000000000000A78D000894
:10003000B38D000800000000BF8D0008CB8D0008C4
:10004000818D0008818D0008818D00084D780008A1
:10005000818D0008818D0008818D0008818D000848
:10006000818D0008818D0008818D00085D62000887
:10007000818D0008818D0008818D0008818D000828
:10008000818D0008818D0008818D0008818D000818
:10009000818D0008818D0008818D0008818D000808
:1000A000818D0008818D0008818D0008818D0008F8
:1000B000818D00080000000000000000818D000814
:1000C000818D0008818D0008818D0008818D0008D8
:1000D000818D0008818D0008818D0008818D0008C8
:1000E000818D0008818D00080000000000000000E4
:1000F0000000000000000000000000000000000000
:1001000000000000818D000800000000818D0008C3
:100110000000000000000000F97E0008818D00084A
:10012000818D0008818D0008818D0008818D000877
:10013000818D0008000000000000000000000000A9
:10014000818D0008818D0008818D0008818D000857
:10015000818D0008818D0008818D0008818D000847
:10016000818D0008818D0008818D0008000000004D
:10017000818D0008818D0008818D0008000000003D
:0C018000818D0008818D0008818D000831
:1001900010B5054C237833B9044B13B10448AFF3C1
:1001A00000800123237010BD6800002000000000C3
:1001B000F894000808B5034B1BB103490348AFF39B
:1001C000008008BD000000006C000020F8940008CA
:1001D00081F0004102E000BF83F0004330B54FEAF8
:1001E00041044FEA430594EA050F08BF90EA020F65
:1001F0001FBF54EA000C55EA020C7FEA645C7FEAF8
:10020000655C00F0E2804FEA5454D4EB5555B8BF1A
:100210006D420CDD2C4480EA020281EA030382EA8B
:10022000000083EA010180EA020281EA0303362D1D
:1002300088BF30BD11F0004F4FEA01314FF4801CF0
:100240004CEA113102D0404261EB410113F0004F02
:100250004FEA03334CEA133302D0524263EB4303B9
:1002600094EA050F00F0A780A4F10104D5F1200E57
:100270000DDB02FA0EFC22FA05F2801841F10001B2
:1002800003FA0EF2801843FA05F359410EE0A5F186
:1002900020050EF1200E012A03FA0EFC28BF4CF0B7
:1002A000020C43FA05F3C01851EBE37101F000456D
:1002B00007D54FF0000EDCF1000C7EEB00006EEB7A
:1002C0000101B1F5801F1BD3B1F5001F0CD3490804
:1002D0005FEA30004FEA3C0C04F101044FEA44525B
:1002E00012F5800F80F09A80BCF1004F08BF5FEAE2
:1002F000500C50F1000041EB045141EA050130BDC2
:100300005FEA4C0C404141EB0101013C28BFB1F5D3
:10031000801FE9D291F0000F04BF01460020B1FA1E
:1003200081F308BF2033A3F10B03B3F120020CDAF1
:100330000C3208DD02F1140CC2F10C0201FA0CF0CF
:1003400021FA02F10CE002F11402D8BFC2F1200C34
:1003500001FA02F120FA0CFCDCBF41EA0C019040EA
:10036000E41AA2BF01EB0451294330BD6FEA040433
:100370001F3C1CDA0C340EDC04F11404C4F120021E
:1003800020FA04F001FA02F340EA030021FA04F330
:1003900045EA030130BDC4F10C04C4F1200220FA87
:1003A00002F001FA04F340EA0300294630BD21FAC5
:1003B00004F0294630BD94F0000F83F4801306BF8B
:1003C00081F480110134013D4EE77FEA645C18BF7F
:1003D0007FEA655C29D094EA050F08BF90EA020F16
:1003E00005D054EA000C04BF1946104630BD91EA0E
:1003F000030F1EBF0021002030BD5FEA545C05D111
:100400004000494128BF41F0004130BD14F580044F
:100410003CBF01F5801130BD01F0004545F0FE41C3
:1004200041F470014FF0000030BD7FEA645C1ABFF8
:10043000194610467FEA655C1CBF0B46024650EA2F
:10044000013406BF52EA033591EA030F41F400215B
:1004500030BD00BF90F0000F04BF0021704730B5E1
:100460004FF4806404F132044FF000054FF00001B6
:1004700050E700BF90F0000F04BF0021704730B577
:100480004FF4806404F1320410F0004548BF40424C
:100490004FF000013EE700BF42004FEAE2014FEAA1
:1004A00031014FEA02701FBF12F07F4393F07F4F7C
:1004B00081F06051704732F07F4208BF704793F07F
:1004C0007F4F04BF41F40021704730B54FF4607492
:1004D00001F0004521F000411CE700BF50EA010295
:1004E00008BF704730B54FF000050AE050EA01023E
:1004F00008BF704730B511F0004502D5404261EBAE
:1005000041014FF4806404F132045FEA915C3FF4EE
:10051000D8AE4FF003025FEADC0C18BF03325FEA8B
:10052000DC0C18BF033202EBDC02C2F1200300FA3C
:1005300003FC20FA02F001FA03FE40EA0E0021FA61
:1005400002F11444BDE600BF70B54FF0FF0C4CF44F
:10055000E06C1CEA11541DBF1CEA135594EA0C0F01
:1005600095EA0C0F00F0DEF82C4481EA030621EA3C
:100570004C5123EA4C5350EA013518BF52EA033577
:1005800041F4801143F4801338D0A0FB02CE4FF029
:100590000005E1FB02E506F00042E0FB03E54FF059
:1005A0000006E1FB03569CF0000F18BF4EF0010E51
:1005B000A4F1FF04B6F5007F64F5407404D25FEA4D
:1005C0004E0E6D4146EB060642EAC62141EA555100
:1005D0004FEAC52040EA5E504FEACE2EB4F1FD0C42
:1005E00088BFBCF5E06F1ED8BEF1004F08BF5FEAC0
:1005F000500E50F1000041EB045170BD06F0004672
:1006000046EA010140EA020081EA0301B4EB5C041E
:10061000C2BFD4EB0C0541EA045170BD41F4801116
:100620004FF0000E013C00F3AB8014F1360FDEBF3B
:10063000002001F0004170BDC4F10004203C35DA17
:100640000C341BDC04F11404C4F1200500FA05F39A
:1006500020FA04F001FA05F240EA020001F000423B
:1006600021F0004110EBD37021FA04F642EB0601B1
:100670005EEA430E08BF20EAD37070BDC4F10C04DB
:10068000C4F1200500FA04F320FA05F001FA04F29F
:1006900040EA020001F0004110EBD37041F100018B
:1006A0005EEA430E08BF20EAD37070BDC4F1200596
:1006B00000FA05F24EEA020E20FA04F301FA05F2FE
:1006C00043EA020321FA04F001F0004121FA04F2A6
:1006D00020EA020000EBD3705EEA430E08BF20EA76
:1006E000D37070BD94F0000F0FD101F000464000B0
:1006F00041EB010111F4801F08BF013CF7D041EA32
:10070000060195F0000F18BF704703F00046520035
:1007100043EB030313F4801F08BF013DF7D043EA06
:100720000603704794EA0C0F0CEA135518BF95EABC
:100730000C0F0CD050EA410618BF52EA4306D1D143
:1007400081EA030101F000414FF0000070BD50EA62
:10075000410606BF1046194652EA430619D094EAEC
:100760000C0F02D150EA013613D195EA0C0F05D1D6
:1007700052EA03361CBF104619460AD181EA03012A
:1007800001F0004141F0FE4141F470014FF00000E2
:1007900070BD41F0FE4141F4780170BD70B54FF07D
:1007A000FF0C4CF4E06C1CEA11541DBF1CEA1355FD
:1007B00094EA0C0F95EA0C0F00F0A7F8A4EB0504DF
:1007C00081EA030E52EA03354FEA013100F08880D6
:1007D0004FEA03334FF0805545EA131343EA12639F
:1007E0004FEA022245EA111545EA10654FEA002654
:1007F0000EF000419D4208BF964244F1FD0404F50D
:10080000407402D25B084FEA3202B61A65EB030568
:100810005B084FEA32024FF480104FF4002CB6EB25
:10082000020E75EB030E22BFB61A754640EA0C00A5
:100830005B084FEA3202B6EB020E75EB030E22BFE5
:10084000B61A754640EA5C005B084FEA3202B6EB26
:10085000020E75EB030E22BFB61A754640EA9C00E5
:100860005B084FEA3202B6EB020E75EB030E22BFB5
:10087000B61A754640EADC0055EA060E18D04FEA73
:10088000051545EA16754FEA06164FEAC30343EA13
:1008900052734FEAC2025FEA1C1CC0D111F4801FE0
:1008A0000BD141EA00014FF000004FF0004CB6E7D9
:1008B00011F4801F04BF01430020B4F1FD0C88BF78
:1008C000BCF5E06F3FF6AFAEB5EB030C04BFB6EB83
:1008D000020C5FEA500C50F1000041EB045170BD76
:1008E0000EF0004E4EEA113114EB5C04C2BFD4EBA3
:1008F0000C0541EA045170BD41F480114FF0000E27
:10090000013C90E645EA060E8DE60CEA135594EAA2
:100910000C0F08BF95EA0C0F3FF43BAF94EA0C0FA5
:100920000AD150EA01347FF434AF95EA0C0F7FF41A
:1009300025AF104619462CE795EA0C0F06D152EA6E
:1009400003353FF4FDAE1046194622E750EA410652
:1009500018BF52EA43067FF4C5AE50EA41047FF463
:100960000DAF52EA43057FF4EBAE12E74FF0FF3CC8
:1009700006E000BF4FF0010C02E000BF4FF0010C99
:100980004DF804CD4FEA410C7FEA6C5C4FEA430C12
:1009900018BF7FEA6C5C1BD001B050EA410C0CBF61
:1009A00052EA430C91EA030F02BF90EA020F0020C3
:1009B000704710F1000F91EA030F58BF994208BF2A
:1009C00090422CBFD8176FEAE37040F001007047E7
:1009D0004FEA410C7FEA6C5C02D150EA013C07D13E
:1009E0004FEA430C7FEA6C5CD6D152EA033CD3D089
:1009F0005DF8040B704700BF8446104662468C4683
:100A00001946634600E000BF01B5FFF7B7FF0028B5
:100A100048BF10F1000F01BD4DF808EDFFF7F4FFDE
:100A20000CBF012000205DF808FB00BF4DF808ED69
:100A3000FFF7EAFF34BF012000205DF808FB00BF8C
:100A40004DF808EDFFF7E0FF94BF012000205DF8AE
:100A500008FB00BF4DF808EDFFF7CEFF94BF012063
:100A600000205DF808FB00BF4DF808EDFFF7C4FF5C
:100A700034BF012000205DF808FB00BF4FEA410CA5
:100A80007FEA6C5C02D150EA013C0AD14FEA430C88
:100A90007FEA6C5C02D152EA033C02D14FF00000C5
:100AA00070474FF0010070474FEA4102B2F1E04356
:100AB00024BFB3F5001CDCF1FE5C0DD901F0004C45
:100AC0004FEAC0024CEA5070B2F1004F40EB830095
:100AD00008BF20F00100704711F0804F21D113F1C1
:100AE0003872BCBF01F00040704741F480114FEAFA
:100AF0005252C2F11802C2F1200C10FA0CF320FA83
:100B000002F018BF40F001004FEAC1234FEAD3239F
:100B100003FA0CFC40EA0C0023FA02F34FEA430309
:100B2000CCE77FEA625307D150EA01331EBF4FF092
:100B3000FE4040F44000704701F0004040F0FE40AD
:100B400040F40000704700BF80F0004002E000BFAA
:100B500081F0004142001FBF5FEA410392EA030FA8
:100B60007FEA226C7FEA236C6AD04FEA1262D2EBF2
:100B70001363C1BFD218414048404140B8BF5B42F7
:100B8000192B88BF704710F0004F40F4000020F090
:100B90007F4018BF404211F0004F41F4000121F0A6
:100BA0007F4118BF494292EA030F3FD0A2F10102F0
:100BB00041FA03FC10EB0C00C3F1200301FA03F12E
:100BC00000F0004302D5494260EB4000B0F5000F51
:100BD00013D3B0F1807F06D340084FEA310102F110
:100BE0000102FE2A51D2B1F1004F40EBC25008BFC2
:100BF00020F0010040EA03007047490040EB00008C
:100C0000013A28BFB0F5000FEDD2B0FA80FCACF18C
:100C1000080CB2EB0C0200FA0CF0AABF00EBC250B9
:100C200052421843BCBFD0401843704792F0000FA7
:100C300081F4000106BF80F400000132013BB5E7FA
:100C40004FEA41037FEA226C18BF7FEA236C21D070
:100C500092EA030F04D092F0000F08BF08467047D5
:100C600090EA010F1CBF0020704712F07F4F04D1A3
:100C7000400028BF40F00040704712F100723CBFB6
:100C800000F50000704700F0004343F0FE4040F4E0
:100C9000000070477FEA226216BF08467FEA23639E
:100CA0000146420206BF5FEA412390EA010F40F489
:100CB000800070474FF0000304E000BF10F00043D5
:100CC00048BF40425FEA000C08BF704743F09643BC
:100CD00001464FF000001CE050EA010208BF7047D7
:100CE0004FF000030AE000BF50EA010208BF70475E
:100CF00011F0004302D5404261EB41015FEA010C73
:100D000002BF84460146002043F0B64308BFA3F16A
:100D10008053A3F50003BCFA8CF2083AA3EBC2534C
:100D200010DB01FA02FC634400FA02FCC2F120026B
:100D3000BCF1004F20FA02F243EB020008BF20F0A2
:100D40000100704702F1200201FA02FCC2F1200208
:100D500050EA4C0021FA02F243EB020008BF20EAFD
:100D6000DC7070474FF0FF0C1CEAD0521EBF1CEA2B
:100D7000D15392EA0C0F93EA0C0F6FD01A4480EA19
:100D8000010C400218BF5FEA41211ED04FF0006302
:100D900043EA501043EA5111A0FB01310CF000402E
:100DA000B1F5000F3EBF490041EAD3715B0040EA54
:100DB000010062F17F02FD2A1DD8B3F1004F40EB24
:100DC000C25008BF20F00100704790F0000F0CF0F7
:100DD000004C08BF49024CEA502040EA51207F3ABB
:100DE000C2BFD2F1FF0340EAC250704740F4000096
:100DF0004FF00003013A5DDC12F1190FDCBF00F087
:100E000000407047C2F10002410021FA02F1C2F134
:100E1000200200FA02FC5FEA310040F1000053EAD0
:100E20004C0308BF20EADC70704792F0000F00F01E
:100E3000004C02BF400010F4000F013AF9D040EA24
:100E40000C0093F0000F01F0004C02BF490011F4B8
:100E5000000F013BF9D041EA0C018FE70CEAD153B6
:100E600092EA0C0F18BF93EA0C0F0AD030F0004C36
:100E700018BF31F0004CD8D180EA010000F00040EA
:100E8000704790F0000F17BF90F0004F084691F0A8
:100E9000000F91F0004F14D092EA0C0F01D14202E2
:100EA0000FD193EA0C0F03D14B0218BF084608D1AB
:100EB00080EA010000F0004040F0FE4040F40000F5
:100EC000704740F0FE4040F4400070474FF0FF0C88
:100ED0001CEAD0521EBF1CEAD15392EA0C0F93EACF
:100EE0000C0F69D0A2EB030280EA010C49024FEA21
:100EF000402037D04FF0805343EA111143EA1013DA
:100F00000CF000408B4238BF5B0042F17D024FF491
:100F1000000C8B4224BF5B1A40EA0C00B3EB510F6C
:100F200024BFA3EB510340EA5C00B3EB910F24BF55
:100F3000A3EB910340EA9C00B3EBD10F24BFA3EBDA
:100F4000D10340EADC001B0118BF5FEA1C1CE0D1A2
:100F5000FD2A3FF650AF8B4240EBC25008BF20F055
:100F6000010070470CF0004C4CEA50207F32C2BFA9
:100F7000D2F1FF0340EAC250704740F400004FF046
:100F80000003013A37E792F0000F00F0004C02BF77
:100F9000400010F4000F013AF9D040EA0C0093F041
:100FA000000F01F0004C02BF490011F4000F013B9B
:100FB000F9D041EA0C0195E70CEAD15392EA0C0F03
:100FC00008D142027FF47DAF93EA0C0F7FF470AF3B
:100FD000084676E793EA0C0F04D14B023FF44CAF7E
:100FE00008466EE730F0004C18BF31F0004CCAD113
:100FF00030F000427FF45CAF31F000437FF43CAF4F
:101000005FE700BF4FF0FF3C06E000BF4FF0010C70
:1010100002E000BF4FF0010C4DF804CD4FEA400252
:101020004FEA41037FEA226C18BF7FEA236C11D09C
:1010300001B052EA530C18BF90EA010F58BFB2EB4F
:10104000030088BFC81738BF6FEAE17018BF40F0CF
:10105000010070477FEA226C02D15FEA402C05D183
:101060007FEA236CE4D15FEA412CE1D05DF8040B08
:10107000704700BF844608466146FFE70FB5FFF79B
:10108000C9FF002848BF10F1000F0FBD4DF808ED53
:10109000FFF7F4FF0CBF012000205DF808FB00BF44
:1010A0004DF808EDFFF7EAFF34BF012000205DF89E
:1010B00008FB00BF4DF808EDFFF7E0FF94BF0120EB
:1010C00000205DF808FB00BF4DF808EDFFF7D2FFE8
:1010D00094BF012000205DF808FB00BF4DF808ED2B
:1010E000FFF7C8FF34BF012000205DF808FB00BFF8
:1010F0004FEA4002B2F1FE4F0FD34FF09E03B3EB25
:1011000012620DD94FEA002343F0004310F0004F64
:1011100023FA02F018BF404270474FF000007047BA
:1011200012F1610F01D1420205D110F0004008BF59
:101130006FF0004070474FF00000704753B94AB954
:10114000002908BF00281CBF4FF0FF314FF0FF30CF
:1011500000F074B9ADF1080C6DE904CE00F006F8AA
:10116000DDF804E0DDE9022304B070472DE9F04723
:10117000089E0D4604468846002B4DD18A4294466F
:1011800068D9B2FA82F252B101FA02F3C2F1200137
:1011900020FA01F10CFA02FC41EA030894404FEAFC
:1011A0001C45210CB8FBF5FE1FFA8CF705FB1E83CE
:1011B00041EA03430EFB07F199420BD91CEB0303F1
:1011C0000EF1FF3080F01E81994240F21B81AEF19A
:1011D000020E63445B1AA4B2B3FBF5F005FB1033B7
:1011E00044EA034400FB07F7A7420AD91CEB0404B6
:1011F00000F1FF3380F00881A74240F2058164448A
:101200000238E41B40EA0E4000211EB1D440002306
:10121000C6E90043BDE8F0878B4208D9002E00F0F4
:10122000EE800021C6E900050846BDE8F087B3FA64
:1012300083F100294AD1AB4202D3824200F2F98005
:10124000841A65EB030301209846002EE2D0C6E91C
:101250000048DFE702B9FFDEB2FA82F2002A40F06E
:101260009180A1EB0C054FEA1C471FFA8CFE01216F
:10127000B5FBF7F307FB1350250C45EA00450EFBC1
:1012800003F0A84208D91CEB050503F1FF3802D290
:10129000A84200F2CB8043462D1AA4B2B5FBF7F06A
:1012A00007FB105544EA05440EFB00FEA64508D98D
:1012B0001CEB040400F1FF3502D2A64500F2BB800E
:1012C0002846A4EB0E0440EA03409EE7C1F1200744
:1012D0008B4022FA07FC4CEA030C20FA07F405FACB
:1012E00001F31C43FD404FEA1C4900FA01F3B5FB32
:1012F000F9F8200C1FFA8CFE09FB185540EA054549
:1013000008FB0EF0A84202FA01F20BD91CEB05050E
:1013100008F1FF3A80F08880A84240F28580A8F169
:10132000020865442D1AA4B2B5FBF9F009FB10556B
:1013300044EA054500FB0EFEAE4508D91CEB050549
:1013400000F1FF346CD2AE456AD90238654440EAF8
:101350000840A0FB0294A5EB0E05A542C846A64690
:1013600056D353D05EB1B3EB080265EB0E0505FA18
:1013700007F722FA01F3CD401F43C6E900750021AB
:10138000BDE8F087C2F1200320FA03F10CFA02FC59
:1013900025FA03F395400D434FEA1C471FFA8CFED4
:1013A000B3FBF7F107FB11302B0C43EA004301FBC1
:1013B0000EF0984204FA02F408D91CEB030301F181
:1013C000FF382FD298422DD9023963441B1AADB28F
:1013D000B3FBF7F007FB103345EA034500FB0EF3C0
:1013E000AB4208D91CEB050500F1FF3816D2AB4221
:1013F00014D902386544ED1A40EA014138E7314614
:10140000304607E78646E5E61846FAE64B45A9D298
:10141000B9EB020864EB0C0E0138A3E74046EAE79B
:10142000204694E74146D1E7D0467BE7023B65443E
:1014300032E7084609E76444023842E7704700BFD4
:1014400080B500AF032001F0A3FA0F2000F006F8EA
:1014500002F0AEFB0023184680BD000080B582B0CC
:1014600000AF7860094B1B68094AA2FB03239B0964
:10147000184601F0D6FA002279684FF0FF3001F0EB
:1014800092FA002318460837BD4680BD00000020B0
:10149000D34D621080B400AF044B1B680133034A84
:1014A000136000BFBD4680BC704700BF84000020B1
:1014B00080B400AF024B1B681846BD4680BC704725
:1014C0008400002080B590B000AF7860002387F8DA
:1014D0003F300023BB630023BB607B68002B01D13E
:1014E000012364E17B681B69002B7B689B6D002BEB
:1014F00009D1786800F08EFA7B680022DA657B6893
:10150000002283F854207B681B689B6803F000531B
:10151000B3F1005F07D17B681B689A687B681B6822
:1015200022F000529A607B681B689B6803F080532E
:10153000002B19D17B681B689A687B681B6842F096
:1015400080529A609C4B1B689C4AA2FB0323DA0CD6
:1015500013469B0013445B00BB6002E0BB68013B89
:10156000BB60BB68002BF9D17B681B689B6803F0EC
:101570008053002B0ED17B689B6D43F010027B687B
:101580009A657B68DB6D43F001027B68DA650123B5
:1015900087F83F307B689B6D03F01003002B40F011
:1015A000FB807B681B689B6803F00403002B40F002
:1015B000F3807B689B6D43F002027B689A65804BE9
:1015C0007B637B681B689B6803F00303012B08D1D6
:1015D0007B681B681B6803F00103012B01D1012309
:1015E00000E00023002B08D17B6B9B6823F47C1266
:1015F0007B685B681A437B6B9A607B68DA694FF49F
:101600000053BB62BB6A93FAA3F37B627B6AB3FAB3
:1016100083F39A407B689B6B1A437B68DB681A43B1
:101620007B689B681A437B68596A4FF480333B633D
:101630003B6B93FAA3F3FB62FB6AB3FA83F301FA01
:1016400003F31343BB637B685B6A012B11D17B6897
:101650009B6A5A1E4FF460233B623B6A93FAA3F3E2
:10166000FB61FB69B3FA83F302FA03F3BA6B13432A
:10167000BB637B68DB6A012B0BD07B681B6B002B89
:1016800007D07B68DA6A7B681B6B1343BA6B134322
:10169000BB637B681B68DA684A4B13407A68126840
:1016A000B96B0B43D3607B681B689B6803F00C032A
:1016B000002B4FD17B689A694FF480433B613B69B3
:1016C00093FAA3F3FB60FB68B3FA83F39A407B6859
:1016D000596B0223BB61BB6993FAA3F37B617B69FE
:1016E000B3FA83F301FA03F31343BB637B681B680C
:1016F000DB6823F4804323F002037A681268B96B35
:101700000B43D3607B68DB6B012B1BD17B68DB6AEF
:10171000012B7B681B681B6923F4FF6323F005031F
:101720007A68116C7A68526C11437A68926C114332
:101730007A68D26C0A431A437B681B6842F0010244
:101740001A6107E07B681B681A697B681B6822F0D6
:1017500001021A617B681B69012B0CD17B681B6835
:101760001B6B23F00F017B681B6A5A1E7B681B688A
:101770000A431A6307E07B681B681A6B7B681B6867
:1017800022F00F021A637B689B6D23F0030343F082
:1017900001027B689A6508E07B689B6D43F010024C
:1017A0007B689A65012387F83F3097F83F301846E9
:1017B0004037BD4680BD00BF0000002083DE1B43D4
:1017C0000003045007C0F0FF80B582B000AF78601E
:1017D0007B68002B01D101230EE17B689B6D43F0F8
:1017E00002027B689A656C21786800F077FD7B685F
:1017F0001B68DA687B681B6842F40012DA6078685C
:1018000000F080FE7B681B685B687A68126823F4CE
:10181000FF6323F0070353607B681B6840F2FF728D
:101820001A607B681B689A687B681B6822F0A0427C
:101830009A607B681B689A687B681B6842F000525C
:101840009A607B681B68D9687B681A686C4B0B4090
:10185000D3607B681B68DA687B681B6842F00042D3
:10186000DA607B681B681B697A68126823F4FF637F
:1018700023F0070313617B681B685A697B681B6848
:1018800002F040425A617B681B689A697B681B685A
:1018900002F078429A617B681B681A6A7B681B6851
:1018A00002F0F0221A627B681B685A6A7B681B6828
:1018B00002F0FF225A627B681B689A6A7B681B6889
:1018C00002F0FF229A627B681B68196B7B681A68BA
:1018D0004C4B0B4013637B681B68596B7B681A6821
:1018E000494B0B4053637B681B68996B7B681A6894
:1018F000454B0B4093637B681B68DB6B7A6812680F
:1019000023F4FB6323F00703D3637B681B68196E22
:101910007B681A683D4B0B4013667B681B68596EE9
:101920007B681A68394B0B4053667B681B68996E5D
:101930007B681A68354B0B4093667B681B68D96ED1
:101940007B681A68314B0B40D3667B681B68D3F801
:10195000A0307A681268DB0CDB04C2F8A0307B6828
:101960001B68D3F8A4307A681268DB0CDB04C2F879
:10197000A4307B681B68D3F8B0307A681268DB0C3F
:10198000DB04C2F8B0307B681B68D3F8B4207B68F6
:101990001B6822F07F12C3F8B4207B681B689B6829
:1019A00003F00303012B08D17B681B681B6803F05D
:1019B0000103012B01D1012300E00023002B07D1FB
:1019C000134B9B68124A23F0FF7323F48033936018
:1019D000786800F028F87B680022DA657B680022CE
:1019E0001A667B6800225A667B6800229A657B68CB
:1019F000002283F85420002318460837BD4680BDD6
:101A000004800080300882E0200882E000F0FF03BC
:101A10000003045080B483B000AF786000BF0C377F
:101A2000BD4680BC704780B483B000AF786000BF13
:101A30000C37BD4680BC704780B586B000AFF860FB
:101A4000B9607A600023FB75FB681B689B6803F034
:101A50000403002B6FD1FB6893F85430012B01D1A4
:101A600002236BE0FB68012283F85420F86800F041
:101A7000E3FC0346FB75FB7D002B57D1FB689B6D98
:101A800003F48053B3F5805F06D1FB68DB6D23F070
:101A90000602FB68DA6502E0FB680022DA65FB6893
:101AA0009B6D23F4706323F0010343F48072FB68A1
:101AB0009A65FB689B6D23F48012FB689A65FB684E
:101AC0001B6D204ADA62FB681B6D00221A63FB68FB
:101AD0001B6D1D4A5A63FB681B681C221A60FB6859
:101AE0001B685A68FB681B6842F010025A60FB686A
:101AF0001B68DA68FB681B6842F00102DA60FB6869
:101B0000186DFB681B6840331946BA687B6801F0A2
:101B1000FBF8FB68002283F85420FB681B689A6876
:101B2000FB681B6842F004029A6006E0FB68002232
:101B300083F8542001E00223FB75FB7D184618371B
:101B4000BD4680BDC32500088D26000880B483B043
:101B500000AF786000BF0C37BD4680BC7047000006
:101B600080B4B7B000AF78603960002387F8D73011
:101B70000023BB607B6893F85430012B01D1022312
:101B80009EE37B68012283F854207B681B689B6876
:101B900003F00403002B40F082833B685B68042B56
:101BA00036D87B681B681A6B4FF4F863C7F8C030EF
:101BB000D7F8C03093FAA3F3C7F8BC30D7F8BC30DD
:101BC000B3FA83F319463B685B6801FB03F31F21FB
:101BD00001FA03F3DB4302EA03013B681A684FF49E
:101BE000F863C7F8C830D7F8C83093FAA3F3C7F83A
:101BF000C430D7F8C430B3FA83F318463B685B6847
:101C000000FB03F39A407B681B680A431A63B1E048
:101C10003B685B68092B38D87B681B685A6B4FF4AC
:101C2000F863C7F8B030D7F8B03093FAA3F3C7F829
:101C3000AC30D7F8AC30B3FA83F319463B685B6835
:101C4000053B01FB03F31F2101FA03F3DB4302EA27
:101C500003013B681A684FF4F863C7F8B830D7F847
:101C6000B83093FAA3F3C7F8B430D7F8B430B3FA66
:101C700083F318463B685B68053B00FB03F39A401F
:101C80007B681B680A435A6374E03B685B680E2BF1
:101C900038D87B681B689A6B4FF4F863C7F8A0309C
:101CA000D7F8A03093FAA3F3C7F89C30D7F89C304C
:101CB000B3FA83F319463B685B680A3B01FB03F305
:101CC0001F2101FA03F3DB4302EA03013B681A68B0
:101CD0004FF4F863C7F8A830D7F8A83093FAA3F305
:101CE000C7F8A430D7F8A430B3FA83F318463B689A
:101CF0005B680A3B00FB03F39A407B681B680A435E
:101D00009A6337E07B681B68DA6B4FF4F863C7F8B7
:101D10009030D7F8903093FAA3F3C7F88C30D7F807
:101D20008C30B3FA83F319463B685B680F3B01FBC9
:101D300003F31F2101FA03F3DB4302EA03013B68CB
:101D40001A684FF4F863C7F89830D7F8983093FAC8
:101D5000A3F3C7F89430D7F89430B3FA83F3184656
:101D60003B685B680F3B00FB03F39A407B681B6892
:101D70000A43DA637B681B689B6803F00C03002B43
:101D800040F067813B681B68092B34D97B681B686E
:101D90009A693823C7F88030D7F8803093FAA3F3D4
:101DA000FB67FB6FB3FA83F319463B681B680A3B7A
:101DB00001FB03F3072101FA03F3DB4302EA03010A
:101DC0003B689A683823C7F88830D7F8883093FA88
:101DD000A3F3C7F88430D7F88430B3FA83F31846F6
:101DE0003B681B680A3B00FB03F39A407B681B6857
:101DF0000A439A612BE07B681B685A6938233B676A
:101E00003B6F93FAA3F3FB66FB6EB3FA83F31946B9
:101E10003B681B6801FB03F3072101FA03F3DB4373
:101E200002EA03013B689A683823BB67BB6F93FAE9
:101E3000A3F37B677B6FB3FA83F318463B681B6899
:101E400000FB03F39A407B681B680A435A613B68B6
:101E50005A697B681B68DB68DB0803F003035B00DF
:101E600002FA03F3C7F8D0303B681B69013B032B30
:101E70007AD801A252F823F0891E0008C11E00087A
:101E8000F91E0008311F00087B681B681A6E874B1B
:101E900013403A6811684FF0F842BA66BA6E92FA87
:101EA000A2F27A667A6EB2FA82F29140D7F8D02026
:101EB0000A431A437B681B6842F000421A66CBE073
:101EC0007B681B685A6E794B13403A6811684FF073
:101ED000F8423A663A6E92FAA2F2FA65FA6DB2FAEE
:101EE00082F29140D7F8D0200A431A437B681B68DE
:101EF00042F000425A66AFE07B681B689A6E6B4BFB
:101F000013403A6811684FF0F842BA65BA6D92FA18
:101F1000A2F27A657A6DB2FA82F29140D7F8D020B7
:101F20000A431A437B681B6842F000429A6693E0BA
:101F30007B681B68DA6E5D4B13403A6811684FF09E
:101F4000F8423A653A6D92FAA2F2FA64FA6CB2FA81
:101F500082F29140D7F8D0200A431A437B681B686D
:101F600042F00042DA6677E07B681B681B6E03F084
:101F7000F8423B6819684FF0F843BB64BB6C93FAB6
:101F8000A3F37B647B6CB3FA83F301FA03F39A4205
:101F900007D17B681B681A6E7B681B6822F00042C1
:101FA0001A667B681B685B6E03F0F8423B68196831
:101FB0004FF0F8433B643B6C93FAA3F3FB63FB6B7A
:101FC000B3FA83F301FA03F39A4207D17B681B68E3
:101FD0005A6E7B681B6822F000425A667B681B6859
:101FE0009B6E03F0F8423B6819684FF0F843BB63FF
:101FF000BB6B93FAA3F37B637B6BB3FA83F301FAB6
:1020000003F39A4207D17B681B689A6E7B681B6852
:1020100022F000429A667B681B68DB6E03F0F84290
:102020003B6819684FF0F8433B633B6B93FAA3F3AB
:10203000FB62FB6AB3FA83F301FA03F39A420AD113
:102040007B681B68DA6E7B681B6822F00042DA66E8
:1020500001E000BF00E000BF7B681B689B6803F0E5
:102060000303012B08D17B681B681B6803F0010385
:10207000012B01D1012300E00023002B40F01A8145
:102080003B68DB68B3F1804F12D07B681B68D3F8E4
:10209000B0103B681B68012202FA03F3DA437B6845
:1020A0001B680A40C3F8B02070E000BF00F0FF03D7
:1020B0007B681B68D3F8B0103B681B6801229A400C
:1020C0007B681B680A43C3F8B0203B681B68082B79
:1020D0002ED97B681B689A6938233B623B6A93FA66
:1020E000A3F3FB61FB69B3FA83F319463B681B68F2
:1020F000093B01FB03F3072101FA03F3DB4302EA87
:1021000003013B689A683823BB62BB6A93FAA3F366
:102110007B627B6AB3FA83F318463B681B68093B12
:1021200000FB03F39A407B681B680A439A612DE029
:102130007B681B685A6938233B613B6993FAA3F3B8
:10214000FB60FB68B3FA83F319463B681B680133F5
:1021500001FB03F3072101FA03F3DB4302EA030166
:102160003B689A683823BB61BB6993FAA3F37B6130
:102170007B69B3FA83F318463B681B68013300FBA5
:1021800003F39A407B681B680A435A614F4BC7F8B8
:10219000CC303B681B68112B06D1D7F8CC309B683C
:1021A00003F40003002B15D03B681B68122B06D1EB
:1021B000D7F8CC309B6803F08073002B0AD03B68C3
:1021C0001B68002B76D1D7F8CC309B6803F48003D2
:1021D000002B6FD17B681B689B6803F00303012B06
:1021E00008D17B681B681B6803F00103012B01D138
:1021F000012300E00023002B47D13B681B68112B13
:102200001FD17B681B68324A934252D1D7F8CC3039
:102210009B6843F40002D7F8CC309A602D4B1B68C2
:102220002D4AA2FB0323DA0C13461B019B1ADB0089
:10223000BB6002E0BB68013BBB60BB68002BF9D10F
:1022400037E03B681B68122B0DD17B681B68204A66
:1022500093422ED1D7F8CC309B6843F08072D7F8E8
:10226000CC309A6025E03B681B68002B21D17B684D
:102270001B68174A93421CD1D7F8CC309B6843F4B3
:102280008002D7F8CC309A6013E07B689B6D43F0F6
:1022900020027B689A65012387F8D7300AE07B68C3
:1022A0009B6D43F020027B689A65012387F8D73045
:1022B00000E000BF7B68002283F8542097F8D730F5
:1022C0001846DC37BD4680BC704700BF0003045091
:1022D000000004500000002083DE1B4380B586B060
:1022E00000AF7860396000237B610023FB6000232E
:1022F0003B617B681B689B6803F00C03002B00F0BC
:1023000094807B681B68DB6803F00073B3F1007F87
:102310002AD17B68DB69012B26D17B689B69012B65
:1023200022D10C233B6014E03B69424A93420DD911
:102330007B689B6D43F010027B689A657B68DB6D60
:1023400043F001027B68DA6501236FE03B690133EA
:102350003B617B681B681B6803F04003402BE3D1A3
:102360007B681B6840221A603B68602B15D07B6835
:102370001B689B6803F00403042B0ED17B681B6869
:102380009B6803F00203002B07D17B681B689A68E7
:102390007B681B6842F010029A603B680C2B15D0DA
:1023A0007B681B689B6803F00803082B0ED17B68D1
:1023B0001B689B6803F00203002B07D17B681B6836
:1023C0009A687B681B6842F020029A603B68602B29
:1023D00005D03B686C2B05D10C237B6105E00823FD
:1023E0007B6102E004237B6100BFFFF761F8F860C6
:1023F00014E0FFF75DF80246FB68D31A052B0DD9F0
:102400007B689B6D43F010027B689A657B68DB6D8F
:1024100043F001027B68DA65012307E07B681B68F3
:102420009A687B691340002BE3D1002318461837C4
:10243000BD4680BDFF330A0080B584B000AF786030
:102440000023FB607B681B689B6803F00303012B80
:1024500008D17B681B681B6803F00103012B01D1C5
:10246000012300E00023002B44D17B681B689A689D
:10247000234B1340002B0DD07B689B6D43F0100263
:102480007B689A657B68DB6D43F001027B68DA65E7
:10249000012330E07B681B689A687B681B6842F008
:1024A00001029A60FFF704F8F8601CE07B681B6883
:1024B0009A687B681B6842F001029A60FEF7F8FF99
:1024C0000246FB68D31A022B0DD97B689B6D43F043
:1024D00010027B689A657B68DB6D43F001027B68C4
:1024E000DA65012307E07B681B681B6803F00103C2
:1024F000012BDBD1002318461037BD4680BD00BF3D
:102500003F00008080B584B000AF78600023FB609E
:102510007B681B689B6803F00303012B08D17B6871
:102520001B681B6803F00103012B01D1012300E0AC
:102530000023002B40D07B681B689B6803F00D03D1
:10254000012B0FD17B681B689A687B681B6842F07F
:1025500002029A607B681B6803221A60FEF7A8FFDC
:10256000F86022E07B689B6D43F010027B689A65FF
:102570007B68DB6D43F001027B68DA6501231CE0B8
:10258000FEF796FF0246FB68D31A022B0DD97B6833
:102590009B6D43F010027B689A657B68DB6D43F0AE
:1025A00001027B68DA65012307E07B681B689B6892
:1025B00003F00103012BE3D0002318461037BD467A
:1025C00080BD80B584B000AF78607B689B6AFB609B
:1025D000FB689B6D03F05003002B4AD1FB689B6D99
:1025E00043F40072FB689A65FB681B681B6803F084
:1025F0000803082B20D1FB681B68DB6803F44063E9
:10260000002B32D1FB681B68DB6803F40053002BFE
:102610002BD1FB689B6D23F48072FB689A65FB6885
:102620009B6D03F48053002B1FD1FB689B6D43F01F
:102630000102FB689A6518E0FB681B68DB6803F021
:102640000203002B11D1FB689B6D23F48072FB68A1
:102650009A65FB689B6D03F48053002B05D1FB68E2
:102660009B6D43F00102FB689A65F86803F000FE79
:1026700008E0FB689B6D03F01003102B02D1F86893
:10268000FFF764FA00BF1037BD4680BD80B584B047
:1026900000AF78607B689B6AFB60FB689B6D43F0D2
:1026A0004002FB689A65FB68DB6D43F00402FB683F
:1026B000DA65F868FFF74AFA00BF1037BD4680BDFB
:1026C00080B584B000AF786039600023FB720023CE
:1026D000FB607B6893F85430012B01D1022359E051
:1026E0007B68012283F854207868FFF70BFF0346CC
:1026F000FB72FB7A002B42D17B689B6D23F48853DD
:1027000023F0020343F002027B689A657B681B6832
:102710009B6823F080417B681B683A680A439A6093
:102720007B681B689A687B681B6842F000429A606D
:1027300014E0FB680133FB60FB68B3F57A4F0DD3FF
:102740007B689B6D23F0120343F010027B689A654F
:102750007B68002283F8542001231BE07B681B6800
:102760009B6803F00043B3F1004FE2D07B689B6DA0
:1027700023F0030343F001027B689A6505E07B6860
:102780009B6D43F010027B689A657B68002283F89A
:102790005420FB7A18461037BD4680BD80B485B002
:1027A00000AF78607B6803F00703FB600C4BDB68CD
:1027B000BB60BA684FF6FF031340BB60FB681A02A8
:1027C000BB68134343F0BF6343F40033BB60044A68
:1027D000BB68D36000BF1437BD4680BC704700BFE4
:1027E00000ED00E080B400AF044BDB681B0A03F08F
:1027F00007031846BD4680BC704700BF00ED00E0EF
:1028000080B483B000AF0346FB71FB7903F01F0275
:10281000064997F907305B09012000FA02F241F8F6
:10282000232000BF0C37BD4680BC704700E100E0AC
:1028300080B483B000AF0346FB71FB7903F01F0245
:10284000074997F907305B09012000FA02F22033AB
:1028500041F8232000BF0C37BD4680BC704700BF45
:1028600000E100E080B483B000AF03463960FB7143
:1028700097F90730002B0BDA3B68DAB20C49FB7989
:1028800003F00F03043B1201D2B20B441A7609E0A5
:102890003B68DAB2074997F907301201D2B20B440C
:1028A00083F8002300BF0C37BD4680BC704700BFD3
:1028B00000ED00E000E100E080B489B000AFF86016
:1028C000B9607A60FB6803F00703FB61FB69C3F141
:1028D0000703042B28BF0423BB61FB690433062BC9
:1028E00002D9FB69033B00E000237B614FF0FF321C
:1028F000BB6902FA03F3DA43BB681A407B699A406A
:102900004FF0FF317B6901FA03F3D9437B680B4039
:10291000134318462437BD4680BC704780B400AFCF
:10292000BFF34F8F00BF074BDB6803F4E06205493C
:10293000054B1343CB60BFF34F8F00BF00BF00BFF9
:10294000FCE700BF00ED00E00400FA0580B582B0AE
:1029500000AF78607B68013BB3F1807F01D3012336
:102960000FE00A4A7B68013B53600F214FF0FF30B4
:10297000FFF778FF054B00229A60044B07221A608C
:10298000002318460837BD4680BD00BF10E000E0B8
:1029900080B582B000AF78607868FFF7FFFE00BFB7
:1029A0000837BD4680BD80B586B000AF0346B9602C
:1029B0007A60FB7300237B61FFF714FF78617A680C
:1029C000B9687869FFF778FF024697F90F3011462A
:1029D0001846FFF747FF00BF1837BD4680BD80B5DA
:1029E00082B000AF0346FB7197F907301846FFF736
:1029F00007FF00BF0837BD4680BD80B582B000AF7D
:102A00000346FB7197F907301846FFF711FF00BF27
:102A10000837BD4680BD80B500AFFFF77FFF00BF20
:102A200080BD80B582B000AF78607868FFF78EFF18
:102A3000034618460837BD4680BD000080B483B009
:102A400000AF78607B68042B06D1094B1B68084AED
:102A500043F00403136005E0054B1B68044A23F0B0
:102A60000403136000BF0C37BD4680BC704700BF35
:102A700010E000E080B500AF00F002F800BF80BDBC
:102A800080B400AF00BFBD4680BC704780B485B045
:102A900000AF78600023FB607B68002B01D101232D
:102AA0009CE07B681B681A464F4B9A420FD87B68A4
:102AB0001B681A464D4B13444D4AA2FB03231B09C6
:102AC0009A007B685A647B684A4A1A640EE07B6805
:102AD0001B681A46484B1344454AA2FB03231B09B3
:102AE0009A007B685A647B68444A1A647B680222B5
:102AF00083F825207B681B681B68FB60FB6823F458
:102B00007F5323F03003FB607B689A687B68DB6847
:102B10001A437B681B691A437B685B691A437B68AD
:102B20009B691A437B68DB691A437B681B6A134302
:102B3000FA681343FB607B681B68FA681A607B685D
:102B40009B68B3F5804F31D07B681B6C294A934258
:102B500016D12B4B1A687B685B6C0F2101FA03F3CB
:102B6000DB43274913400B60254B1A687B68596883
:102B70007B685B6C01FA03F3214913430B6015E09A
:102B8000204B1A687B685B6C0F2101FA03F3DB436F
:102B90001C4913400B601B4B1A687B6859687B68A3
:102BA0005B6C01FA03F3174913430B607B68002247
:102BB000DA627B6800221A637B6800225A637B68B2
:102BC00000229A637B680022DA637B68012283F823
:102BD00025207B68002283F8242000231846143720
:102BE000BD4680BC704700BF07040240F8FFFDBF30
:102BF000CDCCCCCC00000240F8FBFDBF000402406D
:102C0000A8000240A804024080B483B000AF7860FE
:102C10007B68002B01D1012360E07B681B681A6888
:102C20007B681B6822F001021A607B681B68002227
:102C30001A607B681B681A462B4B9A420FD87B6838
:102C40001B681A46294B1344294AA2FB03231B097C
:102C50009A007B685A647B68264A1A640EE07B6897
:102C60001B681A46244B1344214AA2FB03231B0969
:102C70009A007B685A647B68204A1A647B685A6CA5
:102C80007B681B6C012101FA02F25A607B681B6CA5
:102C9000184A93420BD11A4B1A687B685B6C0F2160
:102CA00001FA03F3DB43164913400B600AE0154BAE
:102CB0001A687B685B6C0F2101FA03F3DB4311494F
:102CC00013400B607B680022DA637B68002283F884
:102CD00025207B68002283F82420002318460C3727
:102CE000BD4680BC704700BF07040240F8FFFDBF2F
:102CF000CDCCCCCC00000240F8FBFDBF000402406C
:102D0000A8000240A804024080B586B000AFF86079
:102D1000B9607A603B600023FB75FB6893F8243050
:102D2000012B01D102234BE0FB68012283F8242010
:102D3000FB6893F82530DBB2012B3AD1FB68022205
:102D400083F82520FB680022DA63FB681B681A6899
:102D5000FB681B6822F001021A603B687A68B96858
:102D6000F86800F0D4F8FB681B6B002B08D0FB68F8
:102D70001B681A68FB681B6842F00E021A600FE0BD
:102D8000FB681B681A68FB681B6822F004021A6063
:102D9000FB681B681A68FB681B6842F00A021A602D
:102DA000FB681B681A68FB681B6842F001021A6026
:102DB00005E0FB68002283F824200223FB75FB7DDD
:102DC00018461837BD4680BD80B584B000AF786026
:102DD0007B681B6C1B68FB607B681B681B68BB60A7
:102DE0007B685B6C04229A40FB681340002B24D064
:102DF000BB6803F00403002B1FD07B681B681B68B3
:102E000003F02003002B07D17B681B681A687B68DE
:102E10001B6822F004021A607B685A6C7B681B6C8A
:102E2000042101FA02F25A607B681B6B002B69D007
:102E30007B681B6B7868984764E07B685B6C022258
:102E40009A40FB681340002B2CD0BB6803F00203B0
:102E5000002B27D07B681B681B6803F02003002B26
:102E60000BD17B681B681A687B681B6822F00A021A
:102E70001A607B68012283F825207B685A6C7B6886
:102E80001B6C022101FA02F25A607B68002283F86F
:102E900024207B68DB6A002B34D07B68DB6A78688F
:102EA00098472FE07B685B6C08229A40FB681340D0
:102EB000002B28D0BB6803F00803002B23D07B68CD
:102EC0001B681A687B681B6822F00E021A607B6818
:102ED0005A6C7B681B6C012101FA02F25A607B6814
:102EE0000122DA637B68012283F825207B680022B7
:102EF00083F824207B685B6B002B04D07B685B6BC2
:102F00007868984700BF00BF1037BD4680BD80B4C9
:102F100085B000AFF860B9607A603B60FB685A6CBE
:102F2000FB681B6C012101FA02F25A60FB681B6806
:102F30003A685A60FB689B68102B08D1FB681B68D5
:102F40007A689A60FB681B68BA68DA6007E0FB6819
:102F50001B68BA689A60FB681B687A68DA6000BF11
:102F60001437BD4680BC704780B586B000AFF860AE
:102F7000B960C7E900230123FB7500233B612F4B98
:102F80001B78012B01D1022353E02C4B01221A7034
:102F90004CF2503000F080F80346FB75FB7D002BAF
:102FA00043D1264B00225A60254B1B6803F48063F3
:102FB000002B09D0224B1B68214A23F48063136045
:102FC0001E4B02221A7702E01C4B00221A77FB6884
:102FD000002B07D1D7E90023B86800F08BF9012353
:102FE0003B6110E0FB68012B02D0FB68022B0AD189
:102FF0003B681946B86800F09FF9FB68022B02D1C4
:103000004FF480233B614CF2503000F045F803460A
:10301000FB753B69002B06D0094B5A693B69DB43C2
:10302000074913404B6100F09DFA044B00221A70CF
:10303000FB7D18461837BD4680BD00BF88000020C4
:103040000020024080B400AF084B5B69002B07DA18
:10305000064B074A9A60054B064A9A60002300E037
:1030600001231846BD4680BC704700BF00200240C7
:1030700023016745AB89EFCD80B400AF054B5B6999
:10308000044A43F00043536100231846BD4680BC08
:10309000704700BF0020024080B584B000AF786068
:1030A000FEF706FA02467B681344FB600BE07B6880
:1030B000B3F1FF3F07D0FEF7FBF90246FB689342EE
:1030C00001D8032362E0334B1B6903F48033B3F56B
:1030D000803FECD02F4B1B6903F00203022B47D03B
:1030E0002C4B1B6903F00803082B41D0294B1B69AB
:1030F00003F01003102B3BD0264B1B6903F0200379
:10310000202B35D0234B1B6903F04003402B2FD0DD
:10311000204B1B6903F08003802B29D01D4B1B69BA
:1031200003F48073B3F5807F22D01A4B1B6903F43C
:103130000073B3F5007F1BD0164B1B6903F480436B
:10314000B3F5804F14D0134B1B6903F40043B3F560
:10315000004F0DD00F4B9B6903F00043B3F1004FBC
:1031600006D00C4B1B6903F40033B3F5003F03D1C9
:1031700000F012F8012309E0064B1B6903F001037C
:10318000012B02D1034B01221A610023184610378C
:10319000BD4680BD0020024080B400AF534B1B6988
:1031A00003F00203022B05D1514B5B6843F001038E
:1031B0004F4A53604D4B1B6903F00803082B05D1A0
:1031C0004B4B5B6843F00203494A5360474B1B6912
:1031D00003F01003102B05D1454B5B6843F004034B
:1031E000434A5360414B1B6903F02003202B05D158
:1031F0003F4B5B6843F008033D4A53603B4B1B6900
:1032000003F04003402B05D1394B5B6843F01003BA
:10321000374A5360354B1B6903F08003802B05D17F
:10322000334B5B6843F02003314A53602F4B1B69DB
:1032300003F48073B3F5807F05D12D4B5B6843F0B9
:1032400040032B4A5360294B1B6903F40073B3F509
:10325000007F05D1264B5B6843F08003244A53600E
:10326000224B1B6903F48043B3F5804F05D1204BFB
:103270005B6843F480731E4A53601C4B1B6903F464
:103280000043B3F5004F05D1194B5B6843F400735D
:10329000174A5360154B9B6903F00043B3F1004F8D
:1032A00005D1134B5B6843F48063114A53600F4BA5
:1032B0001B6903F40033B3F5003F09D10C4B5B6885
:1032C00043F400630A4A5360084B4FF400321A611A
:1032D000064B9B69054A43F000439361034B4CF254
:1032E000FA321A6100BFBD4680BC70470020024020
:1032F0008800002080B485B000AFF860C7E90023E3
:103300000C4B5B690B4A43F001035361FB683A685D
:103310001A60D7E900014FF000024FF000030A00E5
:103320000023F968043113460B6000BF1437BD4613
:1033300080BC70470020024080B487B000AF786046
:1033400039604023FB757B683B613B68FB600E4B3B
:103350005B690D4A43F48023536172B600BFFA687B
:10336000131DFB603B69191D396112681A60FB7DF2
:10337000013BFB75FB7D002BF1D162B600BF00BFA6
:103380001C37BD4680BC70470020024080B584B029
:1033900000AF786039600123FB730023BB604B4BA7
:1033A0001B78012B01D102238BE0484B01221A70BC
:1033B0004CF25030FFF770FE0346FB73FB7B002B93
:1033C0007BD1424B00225A60414B1B6803F40073CF
:1033D000002B19D03E4B1B683D4A23F40073136049
:1033E0003B4B1B6803F48063002B09D0384B1B68F0
:1033F000374A23F480631360344B03221A7716E0B4
:10340000324B01221A7712E0314B1B6803F48063C0
:10341000002B09D02E4B1B682D4A23F480631360C8
:103420002A4B02221A7702E0284B00221A777B6887
:103430001B68012B11D17B685B68184600F04AF8C5
:103440004CF25030FFF728FE0346FB73204B5B69BC
:103450001F4A23F0040353612DE03B684FF0FF3215
:103460001A607B689B68BB601DE07B685B681946DF
:10347000B86800F04BF84CF25030FFF70DFE0346F1
:10348000FB73134B5B69124A23F4FF6323F00203BF
:103490005361FB7B002B03D03B68BA681A600AE0DB
:1034A000BB680133BB607B689A687B68DB68134448
:1034B000BA689A42D9D300F055F8044B00221A702A
:1034C000FB7B18461037BD4680BD00BF880000203A
:1034D0000020024080B483B000AF78607B6803F0C6
:1034E0000103002B05D0084B5B69074A43F0040336
:1034F0005361054B5B69044A43F48033536100BF59
:103500000C37BD4680BC70470020024080B485B0B7
:1035100000AF78603960124B5B6923F4FF624FF4AF
:10352000FF63FB60FB6893FAA3F3BB60BB68B3FA6D
:1035300083F3796801FA03F3094913434B61084B9C
:103540005B69074A43F002035361054B5B69044A18
:1035500043F48033536100BF1437BD4680BC7047CD
:103560000020024080B400AF1F4B1B7FDBB2012B59
:1035700004D01D4B1B7FDBB2032B11D11B4B1B68EF
:103580001A4A43F400631360184B1B68174A23F46C
:1035900000631360154B1B68144A43F400731360F7
:1035A000114B1B7FDBB2022B04D00F4B1B7FDBB216
:1035B000032B11D10D4B1B680C4A43F4805313604D
:1035C0000A4B1B68094A23F480531360074B1B689E
:1035D000064A43F480631360034B00221A7700BF4E
:1035E000BD4680BC704700BF88000020002002401C
:1035F00080B487B000AF7860396000237B6100231E
:10360000FB6000233B6154E13B681A6801217B6940
:1036100001FA03F31340FB60FB68002B00F04681C6
:103620003B685B68022B03D03B685B68122B23D19D
:103630007B69DA087B68083253F822303B617B698A
:1036400003F007039B000F2202FA03F3DB433A69FE
:1036500013403B613B681A697B6903F007039B00D9
:1036600002FA03F33A6913433B617B69DA087B682A
:103670000832396943F822107B681B683B617B691B
:103680005B00032202FA03F3DB433A6913403B6118
:103690003B685B6803F003027B695B0002FA03F39B
:1036A0003A6913433B617B683A691A603B685B681F
:1036B000012B0BD03B685B68022B07D03B685B6833
:1036C000112B03D03B685B68122B30D17B689B6861
:1036D0003B617B695B00032202FA03F3DB433A6937
:1036E00013403B613B68DA687B695B0002FA03F3D5
:1036F0003A6913433B617B683A699A607B685B680F
:103700003B6101227B6902FA03F3DB433A69134010
:103710003B613B685B681B0903F001027B6902FAAD
:1037200003F33A6913433B617B683A695A607B68EB
:10373000DB683B617B695B00032202FA03F3DB4336
:103740003A6913403B613B689A687B695B0002FA07
:1037500003F33A6913433B617B683A69DA603B687B
:103760005B6803F08053002B00F0A080584B1B6E69
:10377000574A43F001031366554B1B6E03F00103D8
:10378000BB60BB68534A7B699B08023352F8233005
:103790003B617B6903F003039B000F2202FA03F3F2
:1037A000DB433A6913403B617B68B3F1904F19D01A
:1037B0007B68494A934213D07B68484A93420DD0B4
:1037C0007B68474A934207D07B68464A934201D1BF
:1037D000042308E0072306E0032304E0022302E0B9
:1037E000012300E000237A6902F003029200934073
:1037F0003A6913433B6137497B699B0802333A6955
:1038000041F82320384B1B683B61FB68DB433A6976
:1038100013403B613B685B6803F48033002B03D0AB
:103820003A69FB6813433B612F4A3B6913602E4B97
:103830005B683B61FB68DB433A6913403B613B6873
:103840005B6803F40033002B03D03A69FB68134331
:103850003B61254A3B695360234B9B683B61FB6896
:10386000DB433A6913403B613B685B6803F48013B8
:10387000002B03D03A69FB6813433B611A4A3B694A
:103880009360194BDB683B61FB68DB433A6913408B
:103890003B613B685B6803F40013002B03D03A697B
:1038A000FB6813433B61104A3B69D3607B6901337A
:1038B0007B613B681A687B6922FA03F3002B7FF473
:1038C000A3AE00BF00BF1C37BD4680BC704700BF21
:1038D00000100240000001400004004800080048B9
:1038E000000C0048001000480004014080B487B07C
:1038F00000AF7860396000237B6100233B610023C7
:10390000FB60B7E001227B6902FA03F33A681340D7
:103910003B613B69002B00F0AA807B681A687B69D9
:103920005B00032101FA03F31A437B681A607B6989
:10393000DA087B68083253F822107B6903F007032A
:103940009B000F2202FA03F3DB437A69D208194085
:103950007B68083243F822107B689A687B695B00B9
:10396000032101FA03F3DB431A407B689A607B680A
:103970005A6801217B6901FA03F3DB431A407B6833
:103980005A607B68DA687B695B00032101FA03F304
:10399000DB431A407B68DA603D4A7B699B0802334F
:1039A00052F82330FB607B6903F003039B000F2276
:1039B00002FA03F3FA681340FB607B68B3F1904F9F
:1039C00019D07B68334A934213D07B68324A9342C2
:1039D0000DD07B68314A934207D07B68304A9342CE
:1039E00001D1042308E0072306E0032304E00223B7
:1039F00002E0012300E000237A6902F00302920052
:103A00009340FA689A4232D17B6903F003039B002A
:103A10000F2202FA03F3FB601D4A7B699B08023305
:103A200052F82310FB68DA4319487B699B080A4067
:103A3000023340F823201B4B1A683B69DB431949CA
:103A400013400B60174B5A683B69DB431549134021
:103A50004B60144B9A683B69DB43124913408B60FF
:103A6000104BDA683B69DB430E491340CB607B693E
:103A700001337B613A687B6922FA03F3002B7FF400
:103A800041AF00BF00BF1C37BD4680BC704700BFC0
:103A9000000001400004004800080048000C0048F5
:103AA000001000480004014080B485B000AF786089
:103AB0000B467B807B681A697B881340002B02D001
:103AC0000123FB7301E00023FB73FB7B18461437D3
:103AD000BD4680BC704780B483B000AF78600B46B1
:103AE0007B8013467B707B78002B03D07A887B68C1
:103AF0009A6102E07A887B689A6200BF0C37BD4603
:103B000080BC704780B584B000AF78607B68002BC4
:103B100001D1012338E07B681B684CF6CC421A6067
:103B20007B681B6845F255521A607B681B687A688F
:103B300052685A607B681B687A6892689A60FDF7E1
:103B4000B7FCF86008E0FDF7B3FC0246FB68D31A47
:103B5000302B01D9032317E07B681B68DB68002B3F
:103B6000F1D17B681B681A697B68DB689A4205D0D3
:103B70007B681B687A68D2681A6104E07B681B68FE
:103B80004AF6AA221A60002318461037BD4680BDA7
:103B900080B483B000AF78607B681B684AF6AA22C5
:103BA0001A60002318460C37BD4680BC70470000E1
:103BB00080B483B000AF0E4B1B6E0D4A43F001037F
:103BC00013660B4B1B6E03F001037B607B68084B95
:103BD0009B6D074A43F080539365054B9B6D03F043
:103BE00080533B603B6800BF0C37BD4680BC7047CC
:103BF0000010024080B400AF044B1B68034A43F43A
:103C00008073136000BFBD4680BC704700700040E9
:103C100080B400AF034B1B6803F4C0631846BD4675
:103C200080BC70470070004080B485B000AF786001
:103C30000023FB607B68B3F5007F2FD1224B1B680C
:103C400003F4C063B3F5007F37D01F4B1B6823F428
:103C5000C0631D4A43F4007313601C4B1B681C4A6D
:103C6000A2FB03239B0C322202FB03F3FB6002E066
:103C7000FB68013BFB60FB68002B06D0124B5B69C5
:103C800003F48063B3F5806FF2D00F4B5B6903F4EC
:103C90008063B3F5806F10D103230FE00A4B1B68DC
:103CA00003F4C063B3F5806F07D0074B1B6823F4A0
:103CB000C063054A43F48063136000231846143739
:103CC000BD4680BC704700BF00700040000000206F
:103CD00083DE1B4380B483B000AF0346FB71124BFD
:103CE0001B6823F00703104A43F0020313600F4BD5
:103CF0001B690E4A43F004031361FB79012B01D1C8
:103D000030BF05E040BF00BF20BF00BF20BF00BFE5
:103D1000064B1B69054A23F00403136100BF0C37EF
:103D2000BD4680BC704700BF0070004000ED00E061
:103D300080B58CB000AF78600023BB627B681B68E5
:103D400003F01003002B00F0DB809D4B9B6803F019
:103D50000C03002B40F08480994B1B6803F0020396
:103D6000002B05D07B689B69002B01D101239CE3CC
:103D70007B681A6A924B1B6803F00803002B04D07F
:103D80008F4B1B6803F0F00305E08D4BD3F89430A4
:103D90001B0903F0F003934223D27B681B6A184689
:103DA00000F024FE0346002B01D001237DE3844B69
:103DB0001B68834A43F008031360814B1B6823F0A0
:103DC000F0027B681B6A7E4913430B607C4B5B6887
:103DD00023F47F427B68DB691B02794913434B6004
:103DE00022E0774B1B68764A43F008031360744B5C
:103DF0001B6823F0F0027B681B6A714913430B6058
:103E00006F4B5B6823F47F427B68DB691B026C4964
:103E100013434B607B681B6A184600F0E7FD0346BE
:103E2000002B01D0012340E300F068FC0146644B05
:103E30009B6803F0F002F0237B627B6A93FAA3F3A2
:103E40003B623B6AB3FA83F322FA03F35D4AD35C25
:103E500021FA03F35C4A13600F20FDF7FFFA4FE0ED
:103E60007B689B69002B32D0554B1B68544A43F04A
:103E700001031360FDF71CFBB86208E0FDF718FBB7
:103E80000246BB6AD31A022B01D903230DE34C4B24
:103E90001B6803F00203002BF0D0494B1B68484A13
:103EA00043F008031360464B1B6823F0F0027B6865
:103EB0001B6A434913430B60414B5B6823F47F4209
:103EC0007B68DB691B023E4913434B6018E03C4BA7
:103ED0001B683B4A23F001031360FDF7E9FAB8625F
:103EE00008E0FDF7E5FA0246BB6AD31A022B01D9B6
:103EF0000323DAE2324B1B6803F00203002BF0D1FC
:103F00007B681B6803F00103002B7BD02C4B9B6864
:103F100003F00C03082B0BD0294B9B6803F00C0318
:103F20000C2B11D1264BDB6803F00303032B0BD1C1
:103F3000234B1B6803F40033002B62D07B685B6863
:103F4000002B5ED10123B0E27B685B68B3F5803F54
:103F500006D11B4B1B681A4A43F4803313601DE0E3
:103F60007B685B68B3F5A02F0CD1154B1B68144A16
:103F700043F480231360124B1B68114A43F48033CF
:103F800013600BE00E4B1B680D4A23F48033136063
:103F90000B4B1B680A4A23F4802313607B685B6821
:103FA000002B1AD0FDF784FAB8620FE0FDF780FA13
:103FB0000246BB6AD31A642B08D9032375E200BFFB
:103FC000001002409898000800000020A24B1B68D7
:103FD00003F40033002BE9D014E0FDF769FAB8626E
:103FE00008E0FDF765FA0246BB6AD31A642B01D9D3
:103FF00003235AE2984B1B6803F40033002BF0D1E3
:1040000000E000BF7B681B6803F00203002B7FD039
:10401000914B9B6803F00C03042B0BD08E4B9B68D9
:1040200003F00C030C2B27D18B4BDB6803F003034D
:10403000022B21D1884B1B6803F48063002B05D031
:104040007B68DB68002B01D101232EE2824B5B6889
:1040500023F0F8527B6819694FF0F853FB61FB6954
:1040600093FAA3F3BB61BB69B3FA83F301FA03F3D9
:10407000794913434B604BE07B68DB68002B2ED003
:10408000754B1B68744A43F480731360FDF710FA94
:10409000B86208E0FDF70CFA0246BB6AD31A022B9D
:1040A00001D9032301E26C4B1B6803F48063002BEE
:1040B000F0D0694B5B6823F0F8527B6819694FF0C8
:1040C000F8537B617B6993FAA3F33B613B69B3FAD5
:1040D00083F301FA03F3604913434B6018E05E4B2E
:1040E0001B685D4A23F480731360FDF7E1F9B86241
:1040F00008E0FDF7DDF90246BB6AD31A022B01D9AD
:104100000323D2E1544B1B6803F48063002BF0D1EE
:104110007B681B6803F00803002B3CD07B685B695D
:10412000002B1CD04C4BD3F894304B4A43F0010386
:10413000C2F89430FDF7BCF9B86208E0FDF7B8F9B1
:104140000246BB6AD31A022B01D90323ADE1424BCD
:10415000D3F8943003F00203002BEFD01BE03E4B6A
:10416000D3F894303C4A23F00103C2F89430FDF7B1
:104170009FF9B86208E0FDF79BF90246BB6AD31AC3
:10418000022B01D9032390E1334BD3F8943003F091
:104190000203002BEFD17B681B6803F00403002BA4
:1041A00000F0A980002387F82F302B4B9B6D03F084
:1041B0008053002B0ED1284B9B6D274A43F0805330
:1041C0009365254B9B6D03F08053FB60FB680123D7
:1041D00087F82F30214B1B6803F48073002B18D114
:1041E0001E4B1B681D4A43F480731360FDF760F992
:1041F000B86208E0FDF75CF90246BB6AD31A022BED
:1042000001D9032351E1154B1B6803F48073002B84
:10421000F0D07B689B68012B08D10F4BD3F890300E
:104220000D4A43F00103C2F8903029E07B689B6897
:10423000052B15D1084BD3F89030074A43F00403FF
:10424000C2F89030044BD3F89030034A43F0010396
:10425000C2F8903014E000BF00100240007000402F
:10426000944BD3F89030934A23F00103C2F8903076
:10427000904BD3F890308F4A23F00403C2F890306B
:104280007B689B68002B16D0FDF712F9B8620AE034
:10429000FDF70EF90246BB6AD31A41F28832934207
:1042A00001D9032301E1834BD3F8903003F00203DB
:1042B000002BEDD015E0FDF7FBF8B8620AE0FDF742
:1042C000F7F80246BB6AD31A41F28832934201D909
:1042D0000323EAE0774BD3F8903003F00203002B7E
:1042E000EDD197F82F30012B05D1724B9B6D714AA0
:1042F00023F0805393657B681B6803F02003002B39
:104300003CD07B685B6A002B1CD06A4BD3F898309A
:10431000684A43F00103C2F89830FDF7C9F8B86263
:1043200008E0FDF7C5F80246BB6AD31A022B01D993
:104330000323BAE05F4BD3F8983003F00203002B5D
:10434000EFD01BE05B4BD3F898305A4A23F00103BF
:10435000C2F89830FDF7ACF8B86208E0FDF7A8F8AD
:104360000246BB6AD31A022B01D903239DE0514BAD
:10437000D3F8983003F00203002BEFD17B689B6ADF
:10438000002B00F091804B4B9B6803F00C030C2B2F
:1043900000F088807B689B6A022B55D1454B1B68D7
:1043A000444A23F080731360FDF782F8B86208E096
:1043B000FDF77EF80246BB6AD31A022B01D903230C
:1043C00073E03C4B1B6803F00073002BF0D17B685B
:1043D0001B6B013B1A017B685B6B1B021A437B68FA
:1043E000DB6A1A437B68DB6B5B08013B5B051A43A6
:1043F0007B681B6C5B08013B5B061A437B689B6B0D
:10440000DB062C491343CB602A4B1B68294A43F037
:1044100080731360274BDB68264A43F08073D360B8
:10442000FDF746F8B86208E0FDF742F80246BB6ABD
:10443000D31A022B01D9032337E01E4B1B6803F06C
:104440000073002BF0D02FE01A4B1B68194A23F0A1
:1044500080731360174B1B6803F00063002B05D1BA
:10446000144BDB68134A23F00303D360114BDB6862
:10447000104A23F0887323F48033D360FDF718F8D3
:10448000B86208E0FDF714F80246BB6AD31A022BA3
:1044900001D9032309E0074B1B6803F00073002BCD
:1044A000F0D101E0012300E0002318463037BD467B
:1044B00080BD00BF0010024080B586B000AF7860BC
:1044C000396000237B61894B1B6803F007033A685E
:1044D0009A4210D9854B1B6823F0070283493B6839
:1044E00013430B60814B1B6803F007033A689A4241
:1044F00001D00123F6E07B681B6803F00203002B68
:1045000008D07B4B9B6823F0F0027B689B6878495E
:1045100013438B607B681B6803F00103002B00F0E2
:104520008E807B685B68022B07D1714B1B6803F49C
:104530000033002B21D10123D4E07B685B68032B7F
:1045400007D16B4B1B6803F00073002B15D10123BF
:10455000C8E07B685B68002B07D1654B1B6803F0E4
:104560000203002B09D10123BCE0614B1B6803F45B
:104570008063002B01D10123B4E05D4B9B6823F0E5
:1045800003027B685B685A4913438B60FCF790FF1A
:1045900078617B685B68022B12D10AE0FCF788FF28
:1045A00002467B69D31A41F28832934201D9032330
:1045B00098E04F4B9B6803F00C03082BEED13EE0D4
:1045C0007B685B68032B12D10AE0FCF771FF02469F
:1045D0007B69D31A41F28832934201D9032381E0E7
:1045E000434B9B6803F00C030C2BEED127E07B6858
:1045F0005B68002B1DD10AE0FCF75AFF02467B697D
:10460000D31A41F28832934201D903236AE0384B2E
:104610009B6803F00C03002BEED110E0FCF748FF81
:1046200002467B69D31A41F28832934201D90323AF
:1046300058E02F4B9B6803F00C03042BEED12B4B5F
:104640001B6803F007033A689A4210D2274B1B6895
:1046500023F0070225493B6813430B60234B1B687B
:1046600003F007033A689A4201D001233AE07B68DD
:104670001B6803F00403002B08D01D4B9B6823F438
:10468000E0627B68DB681A4913438B607B681B68B8
:1046900003F00803002B09D0154B9B6823F46052EC
:1046A0007B681B69DB00124913438B6000F026F81E
:1046B00001460F4B9B6803F0F002F0233B613B691E
:1046C00093FAA3F3FB60FB68B3FA83F322FA03F3D4
:1046D000084AD35C21FA03F3074A13600F20FCF762
:1046E000BDFE002318461837BD4680BD002002409D
:1046F00000100240989800080000002080B495B097
:1047000000AF0023FB640023BB6400233B6402234F
:10471000FB630223BB6300237B64714B9B6803F044
:104720000C03002B0BD06E4B9B6803F00C030C2B7F
:104730003CD16B4BDB6803F00303012B36D1684B94
:104740001B6803F00803002B12D1654BD3F894309B
:1047500003F470624FF470637B637B6B93FAA3F393
:104760003B633B6BB3FA83F322FA03F3FB640FE082
:104770005B4B1B6803F0F002F023FB62FB6A93FAC9
:10478000A3F3BB62BB6AB3FA83F322FA03F3FB64BD
:10479000544AFB6C52F82330FB64514B9B6803F086
:1047A0000C03002B13D1FB6C7B6410E04C4B9B681B
:1047B00003F00C03042B02D14B4B7B6407E0484B06
:1047C0009B6803F00C03082B01D1484B7B64444BDE
:1047D0009B6803F00C030C2B7CD1414BDB6803F08E
:1047E00003033B643E4BDB6803F0700270237B6283
:1047F0007B6A93FAA3F33B623B6AB3FA83F322FA30
:1048000003F30133BB633B6C022B03D03B6C032BE4
:1048100018D02FE0344ABB6BB2FBF3F3304AD268B6
:1048200002F4FE414FF4FE42FA61FA6992FAA2F2F2
:10483000BA61BA69B2FA82F221FA02F202FB03F318
:10484000BB642FE0294ABB6BB2FBF3F3244AD26866
:1048500002F4FE414FF4FE427A617A6992FAA2F2C2
:104860003A613A69B2FA82F221FA02F202FB03F3E8
:10487000BB6417E0FA6CBB6BB2FBF3F3184AD26867
:1048800002F4FE414FF4FE42FA60FA6892FAA2F294
:10489000BA60BA68B2FA82F221FA02F202FB03F3BA
:1048A000BB6400BF0E4BDB6803F0C0624FF0C06317
:1048B0007B607B6893FAA3F33B603B68B3FA83F3B6
:1048C00022FA03F301335B00FB63BA6CFB6BB2FBB0
:1048D000F3F37B647B6C18465437BD4680BC70474D
:1048E00000100240B09800080024F40000366E0169
:1048F00080B400AF024B1B681846BD4680BC7047B1
:104900000000002080B582B000AFFFF7F1FF014644
:104910000B4B9B6803F4E0624FF4E0637B607B68C1
:1049200093FAA3F33B603B68B3FA83F322FA03F3F1
:10493000044AD35C21FA03F318460837BD4680BD0C
:1049400000100240A898000880B582B000AFFFF7C1
:10495000CFFF01460B4B9B6803F460524FF460534A
:104960007B607B6893FAA3F33B603B68B3FA83F305
:1049700022FA03F3044AD35C21FA03F318460837FA
:10498000BD4680BD00100240A898000880B483B0E6
:1049900000AF786039607B680F221A60114B9B680A
:1049A00003F003027B685A600E4B9B6803F0F00231
:1049B0007B689A600B4B9B6803F4E0627B68DA606B
:1049C000084B9B68DB0803F4E0627B681A61064BC6
:1049D0001B6803F007023B681A6000BF0C37BD4636
:1049E00080BC7047001002400020024080B586B0B5
:1049F00000AF786000237B6100233B612A4B9B6DF5
:104A000003F08053002B03D0FFF702F9786114E024
:104A1000254B9B6D244A43F080539365224B9B6D3D
:104A200003F08053FB60FB68FFF7F2F878611E4BE0
:104A30009B6D1D4A23F0805393657B69B3F5007F1E
:104A40000BD17B68802B19D97B68A02B02D902235C
:104A50003B6113E001233B6110E07B68802B02D9AE
:104A600003233B610AE07B68802B02D102233B6178
:104A700004E07B68702B01D101233B610B4B1B6869
:104A800023F0070209493B6913430B60074B1B687E
:104A900003F007033A699A4201D0012300E00023A2
:104AA00018461837BD4680BD001002400020024065
:104AB00080B582B000AF78607B68002B01D1012304
:104AC00075E07B6893F82130DBB2002B06D17B6860
:104AD000002283F82020786800F01CF97B6802220D
:104AE00083F821207B681B68CA225A627B681B6896
:104AF00053225A62786800F047F90346002B09D028
:104B00007B681B68FF225A627B68042283F821209D
:104B100001234CE07B681B689B687A68126823F469
:104B2000E00323F0400393607B681B6899687B680F
:104B30005A687B681B691A437B689B691A437B68C8
:104B40001B680A439A607B681B687A68D2681A619E
:104B50007B681B6819697B689B681A047B681B6803
:104B60000A431A617B681B68DA687B681B6822F05D
:104B70008002DA607B681B68DA6C7B681B6822F055
:104B80000302DA647B681B68D96C7B68DA697B682E
:104B90005B691A437B681B680A43DA647B681B689D
:104BA000FF225A627B68012283F8212000231846E5
:104BB0000837BD4680BD000080B584B000AF786086
:104BC0000023FB607B68022283F821207B681B683E
:104BD000CA225A627B681B6853225A62786800F0C6
:104BE000D3F80346002B09D07B681B68FF225A626A
:104BF0007B68042283F82120012384E07B681B6802
:104C000042F201125A607B681B689A687B681B68D5
:104C100002F007029A60FCF74BFCF86011E0FCF729
:104C200047FC0246FB68D31AB3F57A7F09D97B6843
:104C30001B68FF225A627B68032283F8212003232A
:104C400061E07B681B68DB6803F00403002BE6D09F
:104C50007B681B689B687B681B6800229A607B6886
:104C60001B684FF6FF725A617B681B68284A1A61FD
:104C70007B681B680022DA617B681B6800221A626D
:104C80007B681B680022DA627B681B680022DA639B
:104C90007B681B6800225A647B681B6800229A6448
:104CA0007B681B680022DA607B681B6800221A643C
:104CB0007B681B680022DA647B681B689B6803F0D2
:104CC0002003002B0FD1786800F036F80346002B44
:104CD00009D07B681B68FF225A627B68042283F834
:104CE000212001230FE07B681B68FF225A6278684D
:104CF00000F019F87B68002283F821207B680022ED
:104D000083F82020002318461037BD4680BD00BF21
:104D1000FF007F0080B483B000AF786000BF0C3725
:104D2000BD4680BC704780B483B000AF786000BFE0
:104D30000C37BD4680BC704780B584B000AF78604A
:104D40000023FB607B681B68DA687B681B6822F0C5
:104D5000A002DA60FCF7ACFBF86009E0FCF7A8FB06
:104D60000246FB68D31AB3F57A7F01D9032307E023
:104D70007B681B68DB6803F02003002BEED0002368
:104D800018461037BD4680BD80B584B000AF78604E
:104D90000023FB607B681B68DB6803F04003002B8B
:104DA00019D17B681B684FF0FF32DA60FCF780FB9B
:104DB000F86009E0FCF77CFB0246FB68D31AB3F508
:104DC0007A7F01D9032307E07B681B68DB6803F067
:104DD0004003002BEED0002318461037BD4680BD9F
:104DE00080B586B000AFF860B9607A6000237B615F
:104DF000FB6893F82030012B01D102239DE0FB6872
:104E0000012283F82020FB68022283F82120FB681E
:104E10001B68CA225A62FB681B6853225A62FB68ED
:104E20001B689B6803F48063002B20D0FCF740FBD9
:104E3000786115E0FCF73CFB02467B69D31AB3F5B9
:104E40007A7F0DD9FB681B68FF225A62FB68032238
:104E500083F82120FB68002283F8202003236CE0E4
:104E6000FB681B68DB6803F00403002BE2D1FB68DE
:104E70001B689A68FB681B6822F480629A60FCF7E2
:104E800017FB786115E0FCF713FB02467B69D31A28
:104E9000B3F57A7F0DD9FB681B68FF225A62FB6865
:104EA000032283F82120FB68002283F820200323BB
:104EB00043E0FB681B68DB6803F00403002BE2D0CF
:104EC000FB681B68BA685A61FB681B689A68FB68D4
:104ED0001B6822F007029A60FB681B689968FB68F0
:104EE0001B687A680A439A60164B1B68154A43F49C
:104EF00080131360134B9B68124A43F48013936032
:104F0000FB681B689A68FB681B6842F480429A60E1
:104F1000FB681B689A68FB681B6842F480629A60B1
:104F2000FB681B68FF225A62FB68012283F821207C
:104F3000FB68002283F82020002318461837BD465E
:104F400080BD00BF0004014080B582B000AF786032
:104F50000F4B4FF480125A617B681B68DB6803F4C7
:104F60008063002B0BD07B681B68DB68DAB27B6840
:104F70001B6862F49062DA60786802F071FC7B680A
:104F8000012283F8212000BF0837BD4680BD00BF45
:104F90000004014080B584B000AF78607B68002BCE
:104FA00001D101237CE07B6800229A627B6893F840
:104FB0005D30DBB2002B06D17B68002283F85C20D9
:104FC000786800F099F87B68022283F85D207B689E
:104FD0001B681A687B681B6822F040021A607B68B5
:104FE000DB68B3F5E06F02D90023FB6002E04FF409
:104FF0008053FB607B68DB68B3F5706F07D07B681C
:10500000DB68B3F5E06F02D07B6800229A627B68B0
:105010001B6B002B0BD17B68DB68B3F5E06F03D90A
:105020007B6802221A6302E07B6801221A637B68B4
:105030005A687B689B681A437B681B691A437B68C4
:105040005B691A437B689B6903F400731A437B68AE
:10505000DB691A437B681B6A42EA03017B689A6A30
:105060007B681B680A431A607B689B691B0C03F012
:1050700004027B685B6A1A437B685B6B1A437B683C
:10508000DB6842EA03017B681B68FA680A435A60DE
:105090007B6800221A667B68012283F85D2000236A
:1050A00018461037BD4680BD80B582B000AF78602D
:1050B0007B68002B01D101231AE07B68022283F870
:1050C0005D207B681B681A687B681B6822F04002C1
:1050D0001A60786800F019F87B6800221A667B680D
:1050E000002283F85D207B68002283F85C20002387
:1050F00018460837BD4680BD80B483B000AF7860E5
:1051000000BF0C37BD4680BC704780B483B000AF91
:10511000786000BF0C37BD4680BC704780B582B058
:1051200000AF78607B68002B01D101231DE07B6814
:1051300093F83930DBB2002B06D17B68002283F86C
:105140003820786800F045F87B68022283F839201F
:105150007B681A687B6804331946104600F09EF994
:105160007B68012283F83920002318460837BD46A2
:1051700080BD80B582B000AF78607B68022283F882
:1051800039207B681B681A6A41F211131340002B07
:105190000FD17B681B681A6A40F244431340002B0E
:1051A00007D17B681B681A687B681B6822F00102C4
:1051B0001A60786800F016F87B68002283F83920BE
:1051C0007B68002283F83820002318460837BD4644
:1051D00080BD80B483B000AF786000BF0C37BD469F
:1051E00080BC704780B483B000AF786000BF0C37DC
:1051F000BD4680BC704780B483B000AF78607B68E8
:105200001B68DA687B681B6842F00102DA607B6821
:105210001B681A687B681B6842F001021A60002351
:1052200018460C37BD4680BC704780B582B000AFD1
:1052300078607B681B681B6903F00203022B22D194
:105240007B681B68DB6803F00203022B1BD17B68C1
:105250001B686FF002021A617B6801221A767B6874
:105260001B689B6903F00303002B03D0786800F0F0
:10527000F9F805E0786800F0ECF8786800F0FBF8E1
:105280007B6800221A767B681B681B6903F00403A5
:10529000042B22D17B681B68DB6803F00403042B1A
:1052A0001BD17B681B686FF004021A617B680222C5
:1052B0001A767B681B689B6903F44073002B03D04C
:1052C000786800F0CFF805E0786800F0C2F87868F8
:1052D00000F0D1F87B6800221A767B681B681B6996
:1052E00003F00803082B22D17B681B68DB6803F0FE
:1052F0000803082B1BD17B681B686FF008021A613A
:105300007B6804221A767B681B68DB6903F0030361
:10531000002B03D0786800F0A5F805E0786800F06D
:1053200098F8786800F0A7F87B6800221A767B6806
:105330001B681B6903F01003102B22D17B681B68CC
:10534000DB6803F01003102B1BD17B681B686FF028
:1053500010021A617B6808221A767B681B68DB6979
:1053600003F44073002B03D0786800F07BF805E06D
:10537000786800F06EF8786800F07DF87B680022AD
:105380001A767B681B681B6903F00103012B11D19E
:105390007B681B68DB6803F00103012B0AD17B6883
:1053A0001B686FF001021A61786800F049F87868AC
:1053B00002F0ACFD7B681B681B6903F08003802B47
:1053C0000ED17B681B68DB6803F08003802B07D15C
:1053D0007B681B686FF080021A61786800F0C5F87E
:1053E0007B681B681B6903F04003402B0ED17B6870
:1053F0001B68DB6803F04003402B07D17B681B6808
:105400006FF040021A61786800F03EF87B681B6814
:105410001B6903F02003202B0ED17B681B68DB681F
:1054200003F02003202B07D17B681B686FF020025C
:105430001A61786800F090F800BF0837BD4680BD5B
:1054400080B483B000AF786000BF0C37BD4680BC2D
:10545000704780B483B000AF786000BF0C37BD46A2
:1054600080BC704780B483B000AF786000BF0C3759
:10547000BD4680BC704780B483B000AF786000BF89
:105480000C37BD4680BC704780B483B000AF7860F5
:1054900000BF0C37BD4680BC7047000080B485B0AB
:1054A00000AF786039600023FB607B681B68FB609D
:1054B0007B68264A934203D07B68B3F1804F08D1C2
:1054C000FB6823F07003FB603B685B68FA6813437A
:1054D000FB607B681D4A93420BD07B68B3F1804F21
:1054E00007D07B681A4A934203D07B68194A9342DB
:1054F00008D1FB6823F44073FB603B68DB68FA6803
:105500001343FB607B68FA681A603B689A687B68A3
:10551000DA623B681A687B689A627B680B4A93423E
:1055200007D07B680A4A934203D07B68094A9342BA
:1055300003D13B681A697B681A637B6801225A6150
:1055400000BF1437BD4680BC704700BF002C01402F
:10555000004001400044014080B483B000AF786057
:1055600000BF0C37BD4680BC704780B483B000AF2D
:10557000786000BF0C37BD4680BC704780B582B0F4
:1055800000AF78607B68002B01D1012343E07B688A
:1055900093F86930DBB2002B06D17B68002283F8D8
:1055A0006820786800F073F87B68242283F869200B
:1055B0007B681B681A687B681B6822F001021A600E
:1055C000786800F077F80346012B01D1012322E02F
:1055D0007B685B6A002B02D0786800F095FB7B68E3
:1055E0001B685A687B681B6822F490425A607B688B
:1055F0001B689A687B681B6822F02A029A607B68A5
:105600001B681A687B681B6842F001021A607868A0
:1056100000F01BFC034618460837BD4680BD80B528
:1056200082B000AF78607B68002B01D101232AE0B3
:105630007B68242283F869207B681B681A687B6872
:105640001B6822F001021A607B681B6800221A6046
:105650007B681B6800225A607B681B6800229A6086
:10566000786800F01DF87B680022DA667B6800220B
:1056700083F869207B68002283F86A207B68002217
:1056800083F86820002318460837BD4680BD80B4E3
:1056900083B000AF786000BF0C37BD4680BC704758
:1056A00080B483B000AF786000BF0C37BD4680BCCB
:1056B000704700002DE9B04F9CB000AFF8650023A3
:1056C000FB66102387F86B300023A7F864300023B3
:1056D000A7F86830002387F86730FB6D9A68FB6D88
:1056E0001B691A43FB6D5B691A43FB6DDB6913434E
:1056F000FB66FB6D1B681B68AA491940FB6D1A68A5
:10570000FB6E0B431360FB6D1B685B6823F440501A
:10571000FB6DD968FB6D1A6840EA01035360FB6DAD
:105720009B69FB66FB6D1A689F4B9A4204D0FB6D28
:105730001A6AFB6E1343FB66FB6D1B689B6823F4C0
:105740003061FB6D1A68FB6E0B439360FB6D1A684A
:10575000964B9A4226D1964BD3F8883003F0030338
:10576000032B1BD801A252F823F000BF7D5700087D
:105770008D5700088557000895570008012387F8C2
:105780006B30A9E0022387F86B30A5E0042387F88B
:105790006B30A1E0082387F86B309DE0102387F879
:1057A0006B3099E0FB6D1A68824B9A4238D1804B7E
:1057B000D3F8883003F00C030C2B2DD801A252F83B
:1057C00023F000BFF95700081958000819580008BD
:1057D00019580008095800081958000819580008F5
:1057E00019580008015800081958000819580008ED
:1057F0001958000811580008002387F86B306BE037
:10580000022387F86B3067E0042387F86B3063E08E
:10581000082387F86B305FE0102387F86B305BE07C
:10582000FB6D1A68644B9A4225D1614BD3F88830DE
:1058300003F03003302B16D0302B18D8202B0AD091
:10584000202B14D8002B02D0102B08D00FE00023FF
:1058500087F86B3040E0022387F86B303CE004238C
:1058600087F86B3038E0082387F86B3034E010237A
:1058700087F86B3030E0FB6D1A684B4B9A422AD1A7
:105880004B4BD3F8883003F44063B3F5406F1AD024
:10589000B3F5406F1BD8B3F5006F0CD0B3F5006FB4
:1058A00015D8002B03D0B3F5806F08D00FE000238C
:1058B00087F86B3010E0022387F86B300CE004238C
:1058C00087F86B3008E0082387F86B3004E010237A
:1058D00087F86B3000E000BFFB6D1A68324B9A42CC
:1058E00040F01B810023FB6697F86B30082B24D80F
:1058F00001A252F823F000BF1D5900083B590008CF
:10590000255900083B5900082B5900083B5900084D
:105910003B5900083B59000833590008FEF7F2FFD5
:10592000F8660EE0254BFB660BE0FEF7E7FEF86637
:1059300007E04FF40043FB6603E0012387F867307C
:1059400000BFFB6E002B00F0D781FB6D5A68134639
:105950005B001A44FB6E934205D3FB6D5B681A0330
:10596000FB6E934203D9012387F86730C4E197F8AF
:105970006B30082B00F2BC8001A252F823F000BF6C
:10598000C1590008F15A00081F5A0008F15A0008CE
:105990005F5A0008F15A0008F15A0008F15A00084D
:1059A000B95A0008F369FFEF008000400038014059
:1059B0000010024000440040004800400024F40071
:1059C000FEF7A0FF03460022984691464FF00002E2
:1059D0004FF000034FEA092343EA18634FEA082215
:1059E000F96D49684908002039657865D7E914459B
:1059F00021465118B964294643EB0101F964FB6D56
:105A00005B6800223B647A64D7E91023D7E912016E
:105A1000FBF794FB02460B461346FB666CE0FB6DFE
:105A20005B685B080022BB63FA63B04BD7E90E01E9
:105A30000246D3183B630B4643F100037B63FB6DC7
:105A40005B680022BB62FA62D7E90A23D7E90C013E
:105A5000FBF774FB02460B461346FB664CE0FEF771
:105A60004DFE034600221C4615464FF000024FF043
:105A700000032B0243EA14632202F96D49684908C6
:105A8000002039627862D7E9084521465118B9618A
:105A9000294643EB0101F961FB6D5B6800223B6124
:105AA0007A61D7E90423D7E90601FBF747FB0246F1
:105AB0000B461346FB661FE0FB6D5B685B0800222C
:105AC0009A4693461AF50003BB604BF10003FB6056
:105AD000FB6D5B6800223B607A60D7E90023D7E961
